:020000040800F2
:10000000D0040020490100080B1D0008B9190008A0
:10001000091D00082B0300089524000800000000BB
:10002000000000000000000000000000A121000806
:1000300051030008000000009F210008B5210008BE
:100040006301000863010008630100086301000800
:1000500063010008630100086301000863010008F0
:1000600063010008630100086301000863010008E0
:1000700063010008630100086301000863010008D0
:1000800063010008630100086301000863010008C0
:1000900063010008630100086301000863010008B0
:1000A00063010008630100086301000863010008A0
:1000B0006301000863010008630100086301000890
:1000C0006301000863010008630100086301000880
:1000D0006301000889240008630100086301000827
:1000E0006301000863010008630100086301000860
:1000F0006301000863010008630100086301000850
:10010000630100086301000863010008630100083F
:100110006301000863010008630100081922000858
:10012000630100086301000863010008630100081F
:10013000DFF810D000F0D8F800480047712500081B
:10014000AFF30080D00400200648804706480047EF
:10015000FEE7FEE7FEE7FEE7FEE7FEE7FEE7FEE777
:10016000FEE7FEE71722000831010008202A04DB21
:10017000203A21FA02F00021704721FA02F3D04020
:10018000C2F120029140084319467047D2B201E003
:1001900000F8012B491EFBD270470022F6E710B58C
:1001A00013460A4604461946FFF7F0FF204610BDE5
:1001B0000EB540F2334102910021CDE900110A460B
:1001C0000B4600F042F803B000BD000030B5041E3D
:1001D00071F1000404DB4FF00044404264EB010184
:1001E000141E73F1000405DB1C464FF0004352421D
:1001F00063EB04038B4208BF824230BD30B5041E5E
:1002000071F1000404DB4FF00044404264EB010153
:10021000141E73F1000405DB1C464FF000435242EC
:1002200063EB0403994208BF904230BD10B5141E21
:1002300073F1000408DA401C41F1000192185B419F
:100240001A4301D120F0010010BD2DE9F04D924676
:100250009B4611B1B1FA81F202E0B0FA80F220328D
:10026000904600F053F804460F4640EA0A0041EA7F
:100270000B0153465A46084313D0114653EA010076
:1002800019D0C8F140025046FFF770FF05460E46F0
:1002900050465946424600F039F8084305D001203F
:1002A00004E020463946BDE8F08D0020054346EACB
:1002B000E0762C4337430A986305E40AA0EB080074
:1002C0000022FD0A44EA47540A3002D500200146C4
:1002D000E9E7010510196941DDE90845001969419F
:1002E000BDE8F04DA2E70000064C074D06E0E068CF
:1002F00040F0010394E8070098471034AC42F6D36D
:10030000FFF71AFFE42E0008042F0008202A04DB60
:10031000203A00FA02F1002070479140C2F1200318
:1003200020FA03F3194390407047FEE710B50446E6
:1003300001F0ACFB482001F06DFB01F03FFB2046D3
:1003400001F068FB01F03AFBBDE8104001F0CABBC8
:10035000704772B6FEE7000070B50D4C0025C4F87A
:1003600098510C48016821F070410160016841F02A
:1003700040510160C4F89C51022004F5CC7402F095
:10038000C3F801202060022002F0BEF8256070BD95
:1003900000802142000C014030B585B00024104897
:1003A0000094019402940394816941F008018161F1
:1003B00080690C4D00F0080004902246C0212846B8
:1003C00000F063FCC02000900120CDE90104022070
:1003D00003906946284600F04FFB05B030BD000091
:1003E00000100240000C014070B50D4C0025C4F80F
:1003F00098510C48016821F070410160016841F09A
:10040000405101600126C4F89C61022004F5CC74BF
:1004100002F07AF82660022002F076F8256070BDBE
:1004200000802142000C01402DE9F0478146174829
:100430000024016821F070410160016841F0004131
:100440000160134E254627464FF00108C6F8987103
:10045000022002F059F8C6F898816006040ED6F81A
:100460001C0108B1641CE4B2012002F04DF86D1CBF
:10047000EDB2082DEAD3B9F1000F04D0FFF76CFFFD
:100480002046BDE8F087FFF7AFFFF9E7000C014019
:10049000008021422DE9F04106461648016821F00E
:1004A00070410160016841F040510160124C002729
:1004B000C4F898713D464FF00108300602D5C4F8E3
:1004C0009C8101E0C4F89C717006060E022002F0C7
:1004D0001BF8C4F89881022002F016F8C4F898714D
:1004E000022002F011F86D1CEDB2082DE5D3BDE835
:1004F000F0810000000C01400080214270B50D48E1
:10050000016821F070410160016841F040510160D3
:10051000094C0120C4F89C01C4F89801042004F59A
:10052000CC7401F0F1FF00256560042001F0ECFFC0
:10053000256070BD000C0140008021420E4810B5BE
:10054000016821F070410160016841F04051016093
:100550000A4C0020C4F89801C4F89C01042004F55A
:10056000CC7401F0D1FF012020606060BDE8104034
:10057000042001F0C9BF0000000C014000802142AE
:1005800070B513480024016821F0704101600168D2
:1005900041F0004101600F4D0126C5F89C613046D5
:1005A00001F0B2FFC5F89861012001F0ADFF07E04E
:1005B000641CE4B2FA2C03D9FFF7C0FF012070BD20
:1005C000D5F81C010028F3D1C5F8980170BD0000D2
:1005D000000C0140008021422DE9F0475949574F56
:1005E000B0FBF1F6564C3046FFF7E2FD8946054672
:1005F0000022554BFFF702FE08D828464946002244
:10060000524BFFF7E3FD01D80020606028464946C1
:1006100000224F4BFFF7F2FD08D82846494600223A
:100620004C4BFFF7D3FD01D80120606028464946B6
:100630000022494BFFF7E2FD03D8AE2E01D802207D
:100640006060284649460022444BFFF7D7FD08D892
:10065000284649460022424BFFF7B8FD01D8032047
:1006600060602846494600223E4BFFF7C7FD03D88D
:10067000BA2E01D804206060284649463A463A4BD3
:10068000FFF7BCFD08D8284649463A46374BFFF7E6
:100690009DFD01D805206060284649463A46344B06
:1006A000FFF7ACFD08D8284649463A46314BFFF7DC
:1006B0008DFD01D806206060284649463A462E4BFB
:1006C000FFF79CFD09D8284649464FF033322B4BA3
:1006D000FFF77CFD01D807206060DFF8A480C72EFB
:1006E00008D3284649464246264BFFF76FFD01D8FE
:1006F00008206060284649464246234BFFF77EFDAE
:1007000008D8284649460022204BFFF75FFD01D854
:1007100009206060284649463A461D4BFFF76EFDAA
:1007200009D8284649464FF066321A4BFFF74EFD6E
:1007300001D80A2060606068BDE8F087CDCCCCCCE1
:100740002000002040420F0000B0624000F06240F4
:100750000070644000D06440007065400030664026
:100760000050664000F06640CC8C6740CCCC6740BF
:10077000CC0C6840CC3C6840CC8C684033B36840BB
:100780009A99999999096940993969400070694025
:10079000CC9C694066C6694010B548F229342146B0
:1007A000082000F07BF82146092000F077F8214668
:1007B0000A2000F073F821460B2000F06FF80A21A0
:1007C000102000F06BF80A21112000F067F80A21D0
:1007D000122000F063F80A21132000F05FF841F2C4
:1007E00001042146142000F059F82146152000F09C
:1007F00055F82146162000F051F82146172000F048
:100800004DF80021192000F049F84CF20D211B2071
:1008100000F044F84FF4004421461E2000F03EF85A
:1008200021461F2000F03AF82146202000F036F83B
:100830002146212000F032F8BDE8104041F201418C
:100840001A2000F02BB8000010B50446FFF756FE42
:100850005420FFF71FFEFFF793FE2046FFF71AFE16
:10086000FFF78EFEFFF74AFE5520FFF713FEFFF756
:1008700087FE0120FFF7D8FD074C20700020FFF70E
:10088000D3FD6070FFF75AFE6078217800EB0120FD
:10089000A11E80B2088010BD2200002070B50C4659
:1008A0000546FFF72BFE5420FFF7F4FDFFF768FE27
:1008B0002846FFF7EFFDFFF763FE200AFFF7EAFD8A
:1008C000FFF75EFEE0B2FFF7E5FDFFF759FEFFF729
:1008D00035FEBDE87040012000F0BCB810B590F8BE
:1008E00021100022022905D00421816380F82020F4
:1008F000012010BD01680B6823F00E030B60016836
:100900000B6823F001030B6090F84030C46B0121A9
:1009100001FA03F3636080F8211080F8202010466C
:1009200010BD00002DE9F05F90F82110002402298D
:1009300003D004218163012485E001680A6822F064
:100940000E020A6001680A6822F001020A603F4E46
:100950003E4FB215DFF8F4C0DFF8F090DFF8ECA0FE
:10096000DFF8E8B0DFF8E4E00168783F1301150232
:10097000ACF1640CA9F15009AAF13C0AABF1280BC7
:10098000AEF1140E4FF48018B14227D9B9420ED0FF
:10099000614512D049451DD0514518D0594518D050
:1009A000714501D1424615E0294EB14201D10122E3
:1009B00010E0274E1436B14201D110220AE0244E35
:1009C0002836B14206D0224A3C32914201D11A4621
:1009D00000E02A461E49091F0A602BE0B94213D0E5
:1009E000614517D0494522D051451DD059451DD0EC
:1009F000714501D142461AE0B14202D14FF08072F6
:100A000015E0134EB14201D1012210E0104E143610
:100A1000B14201D110220AE00D4E2836B14206D073
:100A20000B4A3C32914201D11A4600E02A4607495E
:100A300080394A60012180F82110002180F82010BF
:100A4000416B01B188472046BDE8F09F800002401D
:100A50000804024070B5044600F01CF90546601C0D
:100A600002D004480078044400F014F9401BA0426E
:100A7000FAD370BD2C0000202DE9F84FDFF8C891A3
:100A80000024A9F1040B23460F2709F1040AABF156
:100A9000040ED1E00125A54006EA0502AA4276D15E
:100AA000DFF8A8C14E68A6EB0C0866452BD00DDC1C
:100AB000032E34D005DC36B3012E19D0022E2FD1EF
:100AC0001BE0112E16D0122E2AD119E0B8F5881F7E
:100AD00019D006DCB8F5803F15D0B8F5801F1FD1BE
:100AE00011E0B8F5001F0ED0B8F5041F18D10AE0C8
:100AF000CB6815E0CB681B1D12E0CB6808330FE014
:100B0000CB680C330CE08B682BB1012B4FF0080342
:100B100003D0456104E0042302E0056100E0002306
:100B2000FF2A01D8064601E000F104064FEA8405D9
:100B300001D9A5F12005D6F8008007FA05FC28EABE
:100B40000C0803FA05F548EA0508C6F800804D6868
:100B5000ED0070D53E4DAE6946F00106AE61AD695F
:100B600024F0030605F0010500953A4D06EB050C4F
:100B7000DCF80850A607360F07FA06F825EA08053C
:100B8000DFF8D480404503D14FF0000825E052E063
:100B9000DFF8C880404502D14FF001081DE0DFF8C2
:100BA000C080404502D14FF0020816E0DFF8B48063
:100BB000404502D14FF003080FE0DFF8AC8040451C
:100BC00002D14FF0040808E0DFF8A080404502D1D0
:100BD0004FF0050801E04FF0060808FA06F848EA69
:100BE0000508CCF808804D68D9F80060ED024D4644
:100BF00001D5164300E096432E604D68DAF8006098
:100C0000AD02554601D5164300E096432E604D686F
:100C1000DBF80060AD035D4601D5164300E0964366
:100C20002E604D68DEF80060ED03754601D5164371
:100C300000E096432E60641C0A681646E2407FF48A
:100C400029AFBDE8F88F0000080401400000111032
:100C5000001002400000014000080140000C01406B
:100C6000001001400014014000180140001C014028
:100C70008068084000D001207047C26821EA020362
:100C80000A4043EA0241016170470AB101617047BD
:100C90000904FBE701488068704700002C00002031
:100CA0000248816802781144816070472C0000205E
:100CB000074810B5016841F010010160032000F001
:100CC00075F80F2000F006F800F024F8002010BDA1
:100CD0000020024070B50D4D04464FF47A7128781B
:100CE000B1FBF0F00A490968B1FBF0F000F0DCFA62
:100CF00048B9102C07D200222146501E00F036F8C9
:100D000000206C6070BD012070BD00002C00002030
:100D1000380000200C4808B5816941F0010181616B
:100D2000816901F001010091C16941F08051C16107
:100D3000C06900F0805000900448416821F0E061F3
:100D400041F00071416008BD001002400000014008
:100D5000002809DB00F01F020121914040098000BA
:100D600000F1E020C0F8001170470000F0B40E4B15
:100D70001B680C46C3F30223C3F10705042D00D9F9
:100D80000425191D072901D2002300E0DB1E0126DE
:100D900006FA05F1491E214099409E40761E1640F4
:100DA0003143F0BC01F080BB0CED00E0064900F0DF
:100DB000070208684FF6FF03184040EA0220034A82
:100DC00010430860704700000CED00E00000FA05D9
:100DD0002DE9F0470F46050061D0434E306800F022
:100DE0000700B84209D2306820F00700384330606D
:100DF000306800F00700B84251D128683B4C8107A9
:100E000012D5400703D5606840F4E0606060287840
:100E1000000703D5606840F4605060606068A968AE
:100E200020F0F000084360602878C00728D0686888
:100E3000012810D02168022810D0890700292EDA55
:100E4000616821F0030101436160FFF723FF8046E1
:100E500041F288390DE021688903EFE78901EDE768
:100E6000FFF718FFA0EB0801494502D90320BDE8B0
:100E7000F0876068696800F00C00B0EB810FEFD17B
:100E8000306800F00700B8420BD9306820F0070046
:100E900038433060306800F00700B84201D00120CC
:100EA000E5E72878400705D56068E96820F4E06048
:100EB000084360602878000706D56068296920F437
:100EC000605040EAC100606000F038F86168084A8C
:100ED000C1F30311515CC840064908600648006828
:100EE000FFF7F8FE0020C2E7002002400010024099
:100EF000CA2E0008380000203000002004480549B0
:100F000000684968044AC1F30221515CC840704737
:100F10003800002000100240DA2E0008044805497D
:100F200000684968044AC1F3C221515CC840704757
:100F30003800002000100240DA2E00080E4A5168E6
:100F40000E4801F00C03042B11D0082B0FD10C48D4
:100F5000C1F38343C903C05C0AD55168084AC1F391
:100F60004041921E515C054A5043B0FBF1F070477E
:100F700004494843704700000010024000127A0004
:100F8000BA2E000800093D002DE9F84F040070D08A
:100F90002078C04DC00749D06868C0F3810001289F
:100FA00007D06868C0F38100022809D16868C003CF
:100FB00006D52868800339D560680028E7D035E079
:100FC0006068B0F5803F0BD010B1B0F5A02F11D004
:100FD000286820F480302860286820F4802002E00F
:100FE000286840F480302860606890B1FFF752FEB6
:100FF00006460AE0286840F480202860F0E700BF39
:10100000FFF748FE801B642873D828688003F7D553
:101010000CE0FFF73FFE064605E000BFFFF73AFE93
:10102000801B6428F0D828688003F7D420789A4E73
:1010300080074FF001094FF0000839D5686810F0BB
:101040000C0F07D06868C0F38100022809D16868D6
:10105000C00306D42868800714D52069012808D168
:1010600010E02069B0B1C6F80090FFF713FE074604
:1010700005E00AE1FFF70EFEC01B0228C4D828686D
:101080008007F7D52868616920F0F80040EAC100C0
:1010900028600DE0C6F80080FFF7FCFD074604E07D
:1010A000FFF7F8FDC01B022823D828688007F7D473
:1010B000207800072CD57948A169D9B1C0F80090F3
:1010C000FFF7E8FD074604E0FFF7E4FDC01B022838
:1010D0000FD8686A8007F7D571484FF4FA51006855
:1010E000B0FBF1F0009000BF0098411E0091FAD2D1
:1010F0000EE080E0C0F80080FFF7CCFD074604E07A
:10110000FFF7C8FDC01B022875D8686A8007F7D4AE
:101110002078400760D5E8690027C00008D4E86956
:1011200040F08050E861E869012700F080500090AD
:101130005C480168C90513D40168834641F4807195
:101140000160FFF7A7FD824606E000BFFFF7A2FDA2
:10115000A0EB0A0064284ED8DBF80000C005F5D5E6
:10116000E06801280AD008B1052813D0286A20F0C9
:1011700001002862286A20F0040002E0286A40F09A
:1011800001002862E06841F2883B98B1FFF782FDD8
:1011900082460BE0286A40F004002862EEE700BFB8
:1011A000FFF778FDA0EB0A0159455AD8286A800755
:1011B000F6D50CE0FFF76EFD824605E0FFF76AFD0D
:1011C000A0EB0A0159454CD8286A8007F6D41FB114
:1011D000E86920F08050E861E06988B36968C1F38C
:1011E0008101022944D00228C6F8608004D0FFF7AC
:1011F00051FD044638E034E0FFF74CFD074604E0BB
:10120000FFF748FDC01B02282BD828688001F7D4BF
:10121000206AB0F5803F05D16868A16820F40030ED
:1012200008436860D4E908010843696821F474112F
:1012300008436860C6F86090FFF72CFD044606E09E
:1012400025E000BFFFF726FD001B022809D828680B
:101250008001F7D51BE000BFFFF71CFD001B022833
:1012600002D90320BDE8F88F28688001F4D40EE08D
:101270000128F7D06868226A00F48031914204D1D5
:10128000616A00F47010884201D00120EAE7002072
:10129000E8E70000001002400000424280044242A1
:1012A000380000200070004010B5401EB0F1807F73
:1012B00001D3012010BD4FF0E02460610F216017C1
:1012C00001F0F2F80020A06107202061002010BD8D
:1012D0007047704770B590F83C20012A2CD001244B
:1012E00080F83C40022280F83D2003685A689D68DF
:1012F00022F070060A6832435A60104B02689A4224
:101300000ED00F4B9A420BD0B2F1804F08D00D4B4C
:101310009A4205D00C4B9A4202D00C4B9A4204D10F
:10132000496825F080031943916080F83D40002111
:1013300080F83C10084670BD022070BD002C0140B2
:10134000003401400004004000080040000C004050
:1013500010B5040003D094F83D0010B107E001205F
:1013600010BD002084F83C00204600F01FF8022049
:1013700084F83D00211D206800F054FF012084F80E
:10138000460084F83E0084F83F0084F8400084F86A
:10139000410084F8420084F8430084F8440084F853
:1013A000450084F83D00002010BD000008B500682D
:1013B0000B49884212D10B48C16941F02001C1613B
:1013C000C069002200F02000009011463720FFF78E
:1013D000CDFCBDE808403720FFF7BABC08BD0000CF
:1013E000001400400010024090F83D10012901D087
:1013F00001207047022180F83D100168CA6842F060
:101400000102CA6000680E4988420ED00D49884228
:101410000BD0B0F1804F08D00B49884205D00B4962
:10142000884202D00A49884204D1816801F007014C
:10143000062903D0016841F00101016000207047D6
:10144000002C01400034014000040040000800402E
:10145000000C0040704770B50446006801694FF009
:101460000005C943890715D4C168C943890711D448
:10147000E91E0161012020772068806980072046ED
:1014800002D0FFF7E7FF04E000F098F8204600F0F4
:1014900096F8257720680169C943490717D4C168C0
:1014A000C943490713D46FF004010161022020777A
:1014B0002068806910F4407F204602D0FFF7CAFF01
:1014C00004E000F07BF8204600F079F825772068EA
:1014D0000169C943090716D4C168C943090712D471
:1014E0006FF008010161042020772068C06980073F
:1014F000204602D0FFF7AEFF04E000F05FF8204680
:1015000000F05DF8257720680169C943C90617D442
:10151000C168C943C90613D46FF0100101610820E6
:1015200020772068C06910F4407F204602D0FFF782
:1015300091FF04E000F042F8204600F040F82577E3
:1015400020680169C943C90708D1C168C943C907EF
:1015500004D1891E0161204600F032F8206801693B
:10156000C943090609D4C168C943090605D46FF007
:10157000800101612046FFF7ABFE20680169C94385
:10158000490609D4C168C943490605D46FF0400132
:101590000161204600F062F820680169C9438906AC
:1015A0000BD4C168C943890607D46FF020010161DB
:1015B0002046BDE87040FFF78CBE70BD7047704795
:1015C000F8B500681F4988423BD11F4C1F4D206968
:1015D000401C20612978012902D16169491C61619F
:1015E00000260A2811D11A4F26613888ADF800006C
:1015F000B8788DF80200009800F0D4FDB878012882
:1016000003D104211348FFF738FB60690A2818D179
:10161000114866610068FEF7DFFFE060A168814263
:1016200002D1217849002170A0602078FF2808D1DC
:101630000A200090022305213720626800F092FC06
:101640002E70F8BD00140040040000201C00002093
:101650001D00002000140140280000207047704742
:1016600070470000F8B5016804460868CA684B690D
:1016700010F00F0F4FF0000559D003F0010602F4EF
:101680009077374365D0C10705D0D10503D5616C8C
:1016900041F001016164410705D5D90703D0616CB0
:1016A00041F002016164810705D5D90703D0616C5F
:1016B00041F004016164010707D502F020013143C4
:1016C00003D0616C41F008016164616C00293AD07B
:1016D000800604D5900602D5204600F018FE20684A
:1016E0004069616CC0F38010090700D460B32046E4
:1016F00000F0E6FD20684069400621D520681430DE
:1017000050E8001F21F0400140E80012002AF5D106
:10171000E06BA8B16D494163E06BFFF703F9002866
:1017200011D0E06B416B01B0BDE8F0400847830683
:101730000FD593060DD52046BDE8F84000F0E7BD73
:101740002046FFF78DFFF8BD2046FFF789FF65644F
:10175000F8BD266B2023012E7CD1C6067AD5D6068D
:1017600078D508684868009048694FF0020640063E
:1017700040D5E16B086840680004000CE8D0A28DF9
:101780008242E5D9E085886920282DD020680C3078
:1017900050E8001F21F4807140E80012002AF5D1C2
:1017A0002068143050E8001F21F0010140E80012C9
:1017B000002AF5D12068143050E8001F21F04001C4
:1017C00040E80012002AF5D184F8423025632068F1
:1017D0000C3050E8001F21F0100140E80012002AF0
:1017E000F5D1E06BFFF77AF86663A08DE18D401AC2
:1017F00081B22AE0A08DE18D401A81B2E08D0028EF
:10180000A6D00029A4D022680C3252E8000F20F4A0
:10181000907042E80007002FF5D12068143050E89E
:10182000002F22F0010240E80027002FF5D184F8B4
:101830004230256320680C3050E8002F22F010025F
:1018400040E80023002BF5D166632046FFF707FF31
:10185000F8BDFFE705062BD5150629D594F84100FC
:101860002128F5D1A068B0F5805F01D12069B0B121
:10187000206A411C2162216800784860E08C401E8B
:101880000004000CE084E3D12068C16821F08001ED
:10189000C1602068C16841F04001C160D8E7206A9A
:1018A0000088C0F308004860206A801C2062E5E7D9
:1018B0004006CDD55006CBD5CA68204622F040025E
:1018C000CA6084F8413000F076F8C1E7B122000820
:1018D00070B5040004D094F84100002510B106E072
:1018E000012070BD84F84050204600F023F82420E9
:1018F00084F841002068C16821F40051C16020468D
:1019000000F066FD2068016921F4904101612068C2
:10191000416921F02A0141612068C16841F4005108
:10192000C1606564202084F8410084F8420065634A
:10193000002070BD30B585B000240094019402945D
:1019400003940068184988422CD11848816941F4F1
:1019500080418161816901F480410491816941F094
:10196000040181618069124D00F0040004904FF47D
:1019700000700090022001900320039069462846E1
:10198000FFF77AF82815CDE9000469462846029445
:10199000FFF772F8002211462520FFF7E7F925200E
:1019A000FFF7D6F905B030BD003801400010024005
:1019B0000008014070477047FEE7000070B5144D05
:1019C0004FF48074002221462846FFF75EF92A1D55
:1019D000106820F0F0001060106840F030001060D7
:1019E000002261002846FFF750F9022000F08CFD2C
:1019F000012221462846FFF748F9022000F084FD25
:101A000021462846BDE870400022FFF73EB900009D
:101A1000000C01402DE9F04105461B48016821F00A
:101A2000F0010160016841F0300101608615071F77
:101A3000002231463846FFF728F900244FF4007899
:101A4000280601D5012200E0002241463846FFF772
:101A50001CF96806050E022000F056FD01223146F1
:101A60003846FFF712F9022000F04EFD0022314601
:101A70003846FFF70AF9022000F046FD641CE4B284
:101A8000082CDDD3BDE8F081040C014070B514488A
:101A9000016821F0F0010160016841F0300101604E
:101AA0004415051F012221462846FFF7EEF80122C2
:101AB000160231462846FFF7E8F8042000F024FD1E
:101AC000002221462846FFF7E0F8042000F01CFD24
:101AD00031462846BDE870400022FFF7D6B8000026
:101AE000040C014070B51148016821F0F00101605B
:101AF000016841F0300101608115041F0122204678
:101B0000FFF7C3F86515002229462046FFF7BDF808
:101B1000042000F0F9FC012229462046FFF7B5F821
:101B2000BDE87040042000F0EFBC0000040C014050
:101B300070B50E48016821F0F0010160016841F0C4
:101B4000800101604115041F01222046FFF79DF826
:101B50000122150229462046FFF797F80022294660
:101B60002046FFF792F8002070BD0000040C0140F1
:101B70002DE9F04385B00024244800940194029498
:101B80000394816941F020018161816901F02001A4
:101B90000491816941F004018161816901F00401CE
:101BA0000491816941F0080181618069DFF86080FA
:101BB00000F008000490002204214046FFF765F879
:101BC000DFF850904FF47077002239464846FFF70F
:101BD0005CF80125CDE9005469460F480294FEF7F0
:101BE0004BFF04200226CDE90005CDE902466946F7
:101BF0004046FEF741FF00970396CDE90154694640
:101C00004846FEF739FF05B0BDE8F08300100240FA
:101C100000140140000C0140000801401CB50024E4
:101C20000E4800940C49019401604721C0E9011459
:101C300040F2E7318461C160FFF78AFB08B1FEF72B
:101C400088FB0094694605480194FFF743FB002890
:101C500001D0FEF77EFB1CBD001400403C000020BC
:101C60000C4810B50A4901604FF4E1314160002190
:101C700081600C22C160C0E904128161C161FFF77B
:101C800027FE002803D0BDE81040FEF762BB10BD60
:101C9000003801408400002010B5002108230FA265
:101CA000084600F0C0F908230EA20121002000F030
:101CB000BAF908230DA20221002000F0B4F908238C
:101CC0000CA20321002000F0AEF90A230521BDE893
:101CD00010400AA2002000F0A6B900004368616E1F
:101CE0005F303A004368616E5F313A004368616E6D
:101CF0005F323A004368616E5F333A00506170654D
:101D0000724E756D3A000000FEE7FEE770B50024E4
:101D100004F1B000C0B2002100F0B4F900210220AB
:101D200000F0B0F90021102000F0ACF900250121ED
:101D3000002000F0A7F96D1CEDB2802DF7D3641CD4
:101D4000E4B2082CE4D370BD10B50446FFF79EFE44
:101D50007820FFF75FFEFFF7EBFE0020FFF75AFE4B
:101D6000FFF7E6FE2046FFF755FEFFF7E1FEBDE870
:101D70001040FFF7B7BE10B50446FFF787FE782086
:101D8000FFF748FEFFF7D4FE4020FFF743FEFFF7C2
:101D9000CFFE2046FFF73EFEFFF7CAFEBDE810402B
:101DA000FFF7A0BE10B56420FEF754FE0021AE2060
:101DB00000F068F90021084600F064F900211020C5
:101DC00000F060F90021402000F05CF90021B02013
:101DD00000F058F90021812000F054F90021FF2083
:101DE00000F050F90021A12000F04CF90021A620BC
:101DF00000F048F90021A82000F044F900213F201C
:101E000000F040F90021C82000F03CF90021D32067
:101E100000F038F90021084600F034F90021D520FF
:101E200000F030F90021802000F02CF90021D820AA
:101E300000F028F90021052000F024F90021D92024
:101E400000F020F90021F12000F01CF90021DA2037
:101E500000F018F90021122000F014F90021DB2015
:101E600000F010F90021302000F00CF900218D2045
:101E700000F008F90021142000F004F90021AF203F
:101E800000F000F90021AF2000F0FCF8FFF73EFF62
:101E90000021BDE810400846AFF3008010B50446AD
:101EA000B031C8B2002100F0EDF8102040EA141063
:101EB000002100F0E7F804F00F00BDE8104040F00A
:101EC0000100002100F0DEB82DE9F041203A0024A5
:101ED0000D460746D6B2102B17D07F2F02D9002708
:101EE0004D1CEDB229463846FFF7D8FF1B4906EBDB
:101EF000460001EB40050121285D00F0C3F8641C99
:101F0000E4B2062CF7D3BDE8F0817F2F02D9002779
:101F10008D1CEDB229463846FFF7C0FFDFF8408040
:101F200004EB061118F80100012100F0ABF8641C65
:101F3000E4B2082CF4D36D1CE9B23846FFF7AEFFCB
:101F40000024454604EB061028440121007A00F0E5
:101F500099F8641CE4B2082CF4D3D4E7A026000856
:101F6000C82800082DE9FF5F0026DDF838A05F1EB5
:101F70001C4693468046BAF1100F354650D14FEAC1
:101F80005A0922E0601B401EC1B20A2000F080FB0B
:101F9000BBFBF0F10A20B1FBF0F200FB12101EB9FE
:101FA000BD4201DA38B101263030C2B209FB0580EA
:101FB000C0B2534604E009FB0580C0B2534620225C
:101FC0000199FFF781FF6D1CEDB2A542DAD3BDE8A0
:101FD000FF9F601B401EC1B20A2000F059FBBBFBF3
:101FE000F0F10A20B1FBF0F200FB12101EB9BD4265
:101FF00001DA48B101263030C2B205EB450108EBE9
:102000004100C0B2534606E005EB450108EB410034
:10201000C0B2534620220199FFF756FF6D1CEDB266
:10202000A542D6D3D3E72DE9F041002598461746BF
:102030000E460446102B0ED020E043463146204683
:10204000FFF742FF0834E4B2782C02D90024B61C12
:10205000F6B26D1CEDB27A5D002AEED1BDE8F081DA
:10206000434631462046FFF72FFFA41DE4B2782CEB
:1020700002D90024761CF6B26D1CEDB27A5D002AFE
:10208000EED1EBE709B1FFF776BEFFF75DBE10B505
:102090000446FFF7FBFC6E20FFF7BCFCFFF78EFC4D
:1020A0000120FFF7B7FCFFF789FCFFF71BFDFFF7E7
:1020B000EDFC6C20FFF7AEFCFFF780FC0120FFF782
:1020C000A9FCFFF77BFCFFF70DFDFFF7DFFC6A20A3
:1020D000FFF7A0FCFFF772FC0120FFF79BFCFFF766
:1020E0006DFCFFF7FFFCFFF7D1FC6820FFF792FCC7
:1020F000FFF764FC0120FFF78DFCFFF75FFCFFF7A3
:10210000F1FC2046FEF7A6FCFFF7C0FC6E20FFF7AF
:1021100081FCFFF753FC0020FFF77CFCFFF74EFC2F
:10212000FFF7E0FCFFF7B2FC6C20FFF773FCFFF752
:1021300045FC0020FFF76EFCFFF740FCFFF7D2FCE8
:10214000FFF7A4FC6A20FFF765FCFFF737FC0020CF
:10215000FFF760FCFFF732FCFFF7C4FCFFF796FCCB
:102160006820FFF757FCFFF729FC0020FFF752FC1F
:10217000FFF724FCFFF7B6FCBDE810400120FEF796
:10218000D5B810B5FFF70EFEFFF7C0FD4FF4FA709B
:10219000FFF77DFFBDE810400120FEF7C7B870478C
:1021A0007047000010B501210148FEF761FD10BD28
:1021B00000080140FEF774BD30B58FB02821684695
:1021C000FDF7EBFF14210AA8FDF7E7FF0121080442
:1021D000CDE900100024029402250491CDE90750B6
:1021E0004FF4E01009906846FEF7CEFE08B172B6D3
:1021F000FEE70F20CDE90A054FF48060CDE90C40E1
:1022000002210AA80E94FEF7E3FD002801D072B661
:10221000FEE70FB030BD70470148FFF71CB9000062
:102220003C000020F0B502681C4B1D4D1D4E1E4F9A
:102230001E4C4FF0804C984209D0A04207D0604518
:1022400005D0A84203D0B04201D0B84204D122F058
:10225000700E4A6842EA0E02984209D0A04207D0A6
:10226000604505D0A84203D0B04201D0B84203D1A6
:1022700022F44075CA682A434D6922F080022A433D
:1022800002608A68C2620A688262984201D0A042F3
:1022900001D10969016301214161F0BD002C0140B8
:1022A0000004004000080040000C004000340140E1
:1022B00010B5406A0021C185C184FFF7D1F910BD76
:1022C00001680C3151E8002F22F4907241E800239C
:1022D000002BF5D10168143151E8002F22F00102E2
:1022E00041E80023002BF5D1016B012909D10168D8
:1022F0000C3151E8002F22F0100241E80023002B9E
:10230000F5D1202180F8421000210163704708B503
:1023100090F84210222901D0022008BD82684FF4B3
:1023200080539A4201D1016921B1816A9A421BD03E
:102330004AB10AE00268816A5268C2F308020A8060
:10234000816A891C08E0026972B10268526802F071
:102350007F020A70816A491C8162C18D491E09048D
:10236000090CC18503D01BE002685268F1E70168DF
:10237000CA6822F02002CA600168CA6822F480722A
:10238000CA6001684A6922F001024A61202180F88E
:10239000421000214163026B012A03D0FFF70AFBC0
:1023A000002008BD016301680C3151E8002F22F0C4
:1023B000100241E80023002BF5D101680A68D2061B
:1023C00002D50A6849680091818DFFF748F9E7E76F
:1023D00070B5044600680169E26821F44051114378
:1023E00001612169A0680843616908432168CA68DE
:1023F00041F20C639A430243CA6020684169A269B2
:1024000021F44071114341611E492068884202D184
:10241000FEF784FD01E0FEF771FD00EBC00101EB6A
:102420000012606864218000B2FBF0F3B3FBF1F3AB
:102430006FF018067343B2FBF0F5B2FBF0F605EB54
:102440008305322303EB0515B5FBF1F5B6FBF1F679
:1024500005F0F00505EB0615B2FBF0F6B2FBF0F067
:10246000B0FBF1F06FF01802504306EB800003EB75
:102470000010B0FBF1F0216800F00F0028448860E4
:1024800070BD0000003801400148FFF7EBB80000C4
:1024900084000020FEE70000014A024900F023B852
:1024A00059250008000000200907090E002804DB58
:1024B00000F1E02080F80014704700F00F0000F1F8
:1024C000E02080F8141D704702E008C8121F08C100
:1024D000002AFAD170477047002001E001C1121FA5
:1024E000002AFBD170472DE9F04116460F460446FD
:1024F000002503E03946B047641C6D1C2078002895
:10250000F8D12846BDE8F08171B54FF461754FF000
:10251000E023104E009819E02C46A04200D8044653
:102520009869614201EBC10110EBC10105D49A69C0
:10253000824208DA8A42FADA05E08A199969814208
:10254000FCDD9142FADC0098001B00900028E3D1EA
:1025500078BD00004019010004490A685206FCD504
:10256000024AC1B2121D11607047000000380140DC
:1025700008B5FEF79DFBFFF71FFEFFF7F9FAFFF71F
:102580004DFBFFF76DFBFFF7FCFDFFF785FBFDF74C
:1025900003FFFEF701F938A0FFF77EFF3A496FF01D
:1025A0000100096808613848FEF71EFF45F24949F5
:1025B0006420FEF74FFA7E20FEF746F904467F209E
:1025C000FEF742F94C45F3D1A0F540515539EFD112
:1025D0000020FEF739F9C0F30B040120FEF734F9AF
:1025E000DFF8A88000EB04413220C8F80010FEF7A5
:1025F00031FA0220FEF728F9C0F30B040320FEF79E
:1026000023F900EB04453220FEF724FA0420FEF7FC
:102610001BF9C0F30B040520FEF716F900EB044686
:102620003220FEF717FA0620FEF70EF9C0F30B046E
:102630000720FEF709F900EB0447082400940A2359
:1026400000212820D8F80020FFF78CFC09232A4617
:10265000012128200094FFF785FC0923324602213E
:1026600028200094FFF77EFC09233A460321282006
:102670000094FFF777FC9BE75375636365737321E1
:1026800021210D0A000000003C000020280000204D
:102690000246012000E05043491EC9B2FBD27047F8
:1026A0000000000000000000002F000000000700F4
:1026B000070000147F147F1400242A7F2A1200626E
:1026C000640813230036495522500000050300001A
:1026D00000001C224100000041221C000014083EA2
:1026E00008140008083E0808000000A06000000868
:1026F00008080808000060600000002010080402BC
:10270000003E5149453E0000427F40000042615179
:102710004946002141454B31001814127F10002713
:1027200045454539003C4A494930000171090503D6
:1027300000364949493600064949291E0000363607
:10274000000000005636000000081422410000146A
:102750001414141400004122140800020151090647
:1027600000324959513E007C1211127C007F4949C8
:102770004936003E41414122007F4141221C007FF9
:1027800049494941007F09090901003E4149497A07
:10279000007F0808087F0000417F41000020404181
:1027A0003F01007F08142241007F40404040007FED
:1027B000020C027F007F0408107F003E4141413E31
:1027C000007F09090906003E4151215E007F091979
:1027D00029460046494949310001017F0101003F76
:1027E0004040403F001F2040201F003F4038403FF6
:1027F000006314081463000708700807006151495A
:10280000454300007F41410000552A552A550000EC
:1028100041417F000004020102040040404040406A
:10282000000001020400002054545478007F484402
:10283000443800384444442000384444487F003839
:102840005454541800087E0901020018A4A4A47C62
:10285000007F080404780000447D4000004080842C
:102860007D00007F102844000000417F4000007C74
:1028700004180478007C0804047800384444443880
:1028800000FC242424180018242418FC007C0804CC
:10289000040800485454542000043F444020003CA5
:1028A0004040207C001C2040201C003C4030403C2C
:1028B000004428102844001CA0A0A07C00446454BC
:1028C0004C44141414141414000000000000000000
:1028D0000000000000000000000000F80000000000
:1028E000000000333000000000100C06100C060041
:1028F000000000000000000040C07840C0784000A8
:10290000043F04043F040400007088FC0830000009
:10291000001820FF211E0000F008F000E018000061
:1029200000211C031E211E0000F00888700000001A
:102930001E2123241927211010160E00000000006C
:102940000000000000000000000000E01804020089
:10295000000000071820400000020418E0000000FA
:102960000040201807000000404080F080404000F8
:102970000202010F01020200000000F0000000004E
:102980000101011F01010100000000000000000022
:1029900080B0700000000000000000000000000097
:1029A0000001010101010101000000000000000020
:1029B00000303000000000000000000080601804BB
:1029C000006018060100000000E010080810E00098
:1029D000000F102020100F00001010F80000000061
:1029E0000020203F202000000070080808887000A8
:1029F0000030282422213000003008888848300028
:102A00000018202020110E000000C02010F8000047
:102A100000070424243F240000F8088888080800E0
:102A20000019212020110E0000E0108888180000F5
:102A3000000F112020110E0000380808C8380800C7
:102A40000000003F00000000007088080888700047
:102A5000001C222121221C0000E010080810E000C8
:102A60000000312222110F00000000C0C000000051
:102A70000000003030000000000000800000000076
:102A8000000080600000000000008040201008006E
:102A90000001020408102000404040404040400037
:102AA0000404040404040400000810204080000012
:102AB0000020100804020100007048080808F00017
:102AC0000000003036010000C030C828E810E000E7
:102AD0000718272423140B000000C038E000000072
:102AE000203C23020227382008F8888888700000DC
:102AF000203F202020110E00C030080808083800B0
:102B0000071820202010080008F808080810E00026
:102B1000203F202020100F0008F88888E8081000C7
:102B2000203F20202320180008F88888E80810009B
:102B3000203F200003000000C030080808380000D3
:102B400007182020221E020008F808000008F808D4
:102B5000203F210101213F20000808F8080800005B
:102B60000020203F2020000000000808F80808008E
:102B7000C08080807F00000008F888C02818080006
:102B8000203F20012638200008F80800000000003F
:102B9000203F20202020300008F8F800F8F8080036
:102BA000203F003F003F200008F830C00008F80830
:102BB000203F200007183F00E01008080810E00040
:102BC0000F10202020100F0008F808080808F00057
:102BD000203F210101010000E01008080810E0007A
:102BE0000F18242438504F0008F88888888870000F
:102BF000203F2000030C30200070880808083800AF
:102C00000038202121221C00180808F808081800A4
:102C10000000203F2000000008F808000008F80825
:102C2000001F202020201F000878880000C83808D6
:102C3000000007380E010000F80800F80008F8004E
:102C4000033C0700073C03000818688080681808E8
:102C500020302C03032C30200838C800C838080066
:102C60000000203F2000000010080808C8380800B5
:102C70002038262120201800000000FE0202020059
:102C80000000007F40404000000C30C00000000009
:102C9000000000010638C00000020202FE00000031
:102CA000004040407F0000000000040202020400D7
:102CB0000000000000000000000000000000000014
:102CC00080808080808080800002020400000000FC
:102CD00000000000000000000000808080800000F4
:102CE0000019242222223F2008F8008080000000E2
:102CF000003F112020110E000000008080800000A5
:102D0000000E112020201100000000808088F800B3
:102D1000000E112020103F200000808080800000E5
:102D2000001F222222221300008080F08888881849
:102D30000020203F20200000000080808080800054
:102D4000006B94949493600008F8008080800000E9
:102D5000203F210000203F200080989800000000C4
:102D60000020203F202000000000008098980000F4
:102D700000C08080807F000008F800008080800014
:102D8000203F24022D302000000808F80000000039
:102D90000020203F202000008080808080808000F4
:102DA000203F20003F20003F808000808080000086
:102DB000203F210000203F20000080808080000014
:102DC000001F202020201F00808000808000000045
:102DD00080FFA12020110E00000000808080800074
:102DE000000E112020A0FF80808080008080800065
:102DF00020203F2120000100000080808080800092
:102E00000033242424241900008080E08080000006
:102E10000000001F20200000808000000080800053
:102E2000001F202020103F208080800000808080B4
:102E300000010E3008060100808000800080808044
:102E40000F300C030C300F00008080008080800069
:102E50000020312E0E312000808080000080808094
:102E600080818E7018060100008080808080800044
:102E70000021302C2221300000000000807C020262
:102E800000000000003F404000000000FF00000084
:102E900000000000FF0000000002027C8000000033
:102EA0000040403F0000000000060101020204044F
:102EB00000000000000000000102020304050607F4
:102EC00008090A0B0C0D0E0F101000000000000086
:102ED00000000102030406070809000000000102C7
:102EE00003040000042F0008000000203C00000044
:102EF000C8240008402F00083C0000209404000073
:102F0000D8240008000000000000000000000000BD
:102F100000000000000000000000000000000000B1
:102F200000000000000000000000000000000000A1
:102F30000100000010000000000000000024F40068
:0400000508000131BD
:00000001FF
